{
  "_format": "hh-sol-artifact-1",
  "contractName": "ProductManagement",
  "sourceName": "contracts/services/ProductManagement.sol",
  "abi": [
    {
      "inputs": [],
      "stateMutability": "nonpayable",
      "type": "constructor"
    },
    {
      "anonymous": false,
      "inputs": [
        {
          "indexed": false,
          "internalType": "address",
          "name": "newAdmin",
          "type": "address"
        }
      ],
      "name": "AdminAdded",
      "type": "event"
    },
    {
      "anonymous": false,
      "inputs": [
        {
          "indexed": false,
          "internalType": "uint256",
          "name": "productId",
          "type": "uint256"
        },
        {
          "indexed": false,
          "internalType": "bytes32",
          "name": "productName",
          "type": "bytes32"
        }
      ],
      "name": "ProductAdded",
      "type": "event"
    },
    {
      "anonymous": false,
      "inputs": [
        {
          "indexed": false,
          "internalType": "uint256",
          "name": "productId",
          "type": "uint256"
        },
        {
          "indexed": false,
          "internalType": "bool",
          "name": "isAvailable",
          "type": "bool"
        }
      ],
      "name": "ProductAvailabilityChecked",
      "type": "event"
    },
    {
      "anonymous": false,
      "inputs": [
        {
          "indexed": false,
          "internalType": "uint256",
          "name": "productId",
          "type": "uint256"
        },
        {
          "indexed": false,
          "internalType": "uint8",
          "name": "status",
          "type": "uint8"
        }
      ],
      "name": "ProductUpdated",
      "type": "event"
    },
    {
      "inputs": [
        {
          "internalType": "address",
          "name": "_admin",
          "type": "address"
        }
      ],
      "name": "addAdmin",
      "outputs": [],
      "stateMutability": "nonpayable",
      "type": "function"
    },
    {
      "inputs": [
        {
          "internalType": "bytes32",
          "name": "_productName",
          "type": "bytes32"
        },
        {
          "internalType": "bytes32",
          "name": "_productDescription",
          "type": "bytes32"
        },
        {
          "internalType": "bytes32",
          "name": "_productImage",
          "type": "bytes32"
        },
        {
          "internalType": "uint256",
          "name": "_productQuantity",
          "type": "uint256"
        },
        {
          "internalType": "uint256",
          "name": "_productPrice",
          "type": "uint256"
        }
      ],
      "name": "addProduct",
      "outputs": [],
      "stateMutability": "nonpayable",
      "type": "function"
    },
    {
      "inputs": [
        {
          "internalType": "uint256",
          "name": "_productId",
          "type": "uint256"
        },
        {
          "internalType": "uint256",
          "name": "_quantity",
          "type": "uint256"
        }
      ],
      "name": "checkProductAvailability",
      "outputs": [
        {
          "internalType": "bool",
          "name": "",
          "type": "bool"
        }
      ],
      "stateMutability": "nonpayable",
      "type": "function"
    },
    {
      "inputs": [],
      "name": "getAllProducts",
      "outputs": [
        {
          "components": [
            {
              "internalType": "uint256",
              "name": "id",
              "type": "uint256"
            },
            {
              "internalType": "bytes32",
              "name": "productName",
              "type": "bytes32"
            },
            {
              "internalType": "bytes32",
              "name": "productDescription",
              "type": "bytes32"
            },
            {
              "internalType": "bytes32",
              "name": "productImage",
              "type": "bytes32"
            },
            {
              "internalType": "uint256",
              "name": "productQuantity",
              "type": "uint256"
            },
            {
              "internalType": "uint256",
              "name": "productPrice",
              "type": "uint256"
            },
            {
              "internalType": "enum ProductManagement.ProductStatus",
              "name": "status",
              "type": "uint8"
            }
          ],
          "internalType": "struct ProductManagement.Product[]",
          "name": "",
          "type": "tuple[]"
        }
      ],
      "stateMutability": "view",
      "type": "function"
    },
    {
      "inputs": [
        {
          "internalType": "address",
          "name": "",
          "type": "address"
        }
      ],
      "name": "isAdmin",
      "outputs": [
        {
          "internalType": "bool",
          "name": "",
          "type": "bool"
        }
      ],
      "stateMutability": "view",
      "type": "function"
    },
    {
      "inputs": [],
      "name": "productIdCounter",
      "outputs": [
        {
          "internalType": "uint256",
          "name": "",
          "type": "uint256"
        }
      ],
      "stateMutability": "view",
      "type": "function"
    },
    {
      "inputs": [
        {
          "internalType": "uint256",
          "name": "",
          "type": "uint256"
        }
      ],
      "name": "productList",
      "outputs": [
        {
          "internalType": "uint256",
          "name": "id",
          "type": "uint256"
        },
        {
          "internalType": "bytes32",
          "name": "productName",
          "type": "bytes32"
        },
        {
          "internalType": "bytes32",
          "name": "productDescription",
          "type": "bytes32"
        },
        {
          "internalType": "bytes32",
          "name": "productImage",
          "type": "bytes32"
        },
        {
          "internalType": "uint256",
          "name": "productQuantity",
          "type": "uint256"
        },
        {
          "internalType": "uint256",
          "name": "productPrice",
          "type": "uint256"
        },
        {
          "internalType": "enum ProductManagement.ProductStatus",
          "name": "status",
          "type": "uint8"
        }
      ],
      "stateMutability": "view",
      "type": "function"
    },
    {
      "inputs": [
        {
          "internalType": "uint256",
          "name": "_id",
          "type": "uint256"
        }
      ],
      "name": "productPrice",
      "outputs": [
        {
          "internalType": "uint256",
          "name": "",
          "type": "uint256"
        }
      ],
      "stateMutability": "view",
      "type": "function"
    },
    {
      "inputs": [
        {
          "internalType": "uint256",
          "name": "_productId",
          "type": "uint256"
        },
        {
          "internalType": "enum ProductManagement.ProductStatus",
          "name": "_status",
          "type": "uint8"
        }
      ],
      "name": "updateProductStatus",
      "outputs": [],
      "stateMutability": "nonpayable",
      "type": "function"
    }
  ],
  "bytecode": "0x608060405234801561001057600080fd5b5033600460006101000a81548173ffffffffffffffffffffffffffffffffffffffff021916908373ffffffffffffffffffffffffffffffffffffffff1602179055506112b7806100616000396000f3fe608060405234801561001057600080fd5b50600436106100935760003560e01c8063528c87d211610066578063528c87d214610134578063704802751461016a578063920e2621146101865780639b9e03ba146101a2578063fd68b3ff146101be57610093565b806302ee3a52146100985780630f1298d9146100b657806324d7806c146100e6578063342ae8c614610116575b600080fd5b6100a06101ee565b6040516100ad9190610c10565b60405180910390f35b6100d060048036038101906100cb9190610c63565b6102c4565b6040516100dd9190610cbe565b60405180910390f35b61010060048036038101906100fb9190610d37565b6103e5565b60405161010d9190610cbe565b60405180910390f35b61011e610405565b60405161012b9190610d73565b60405180910390f35b61014e60048036038101906101499190610d8e565b61040b565b6040516101619796959493929190610dd9565b60405180910390f35b610184600480360381019061017f9190610d37565b61046a565b005b6101a0600480360381019061019b9190610e6d565b610688565b005b6101bc60048036038101906101b79190610ed9565b6107fe565b005b6101d860048036038101906101d39190610d8e565b610a0a565b6040516101e59190610d73565b60405180910390f35b60606000805480602002602001604051908101604052809291908181526020016000905b828210156102bb57838290600052602060002090600702016040518060e00160405290816000820154815260200160018201548152602001600282015481526020016003820154815260200160048201548152602001600582015481526020016006820160009054906101000a900460ff16600281111561029657610295610a88565b5b60028111156102a8576102a7610a88565b5b8152505081526020019060010190610212565b50505050905090565b600080831180156102da57506000805490508311155b610319576040517f08c379a000000000000000000000000000000000000000000000000000000000815260040161031090610fb1565b60405180910390fd5b6000826001600060018761032d9190611000565b815260200190815260200160002060040154101580156103a057506000600281111561035c5761035b610a88565b5b6001600060018761036d9190611000565b815260200190815260200160002060060160009054906101000a900460ff16600281111561039e5761039d610a88565b5b145b90507f4b111de098e02123c27098d6f0a04885341b56c767bb4fa512a3110a8575265c84826040516103d3929190611034565b60405180910390a18091505092915050565b60036020528060005260406000206000915054906101000a900460ff1681565b60025481565b6000818154811061041b57600080fd5b90600052602060002090600702016000915090508060000154908060010154908060020154908060030154908060040154908060050154908060060160009054906101000a900460ff16905087565b3373ffffffffffffffffffffffffffffffffffffffff16600460009054906101000a900473ffffffffffffffffffffffffffffffffffffffff1673ffffffffffffffffffffffffffffffffffffffff16146104fa576040517f08c379a00000000000000000000000000000000000000000000000000000000081526004016104f1906110a9565b60405180910390fd5b600073ffffffffffffffffffffffffffffffffffffffff168173ffffffffffffffffffffffffffffffffffffffff1603610569576040517f08c379a000000000000000000000000000000000000000000000000000000000815260040161056090611115565b60405180910390fd5b600360008273ffffffffffffffffffffffffffffffffffffffff1673ffffffffffffffffffffffffffffffffffffffff16815260200190815260200160002060009054906101000a900460ff16156105f6576040517f08c379a00000000000000000000000000000000000000000000000000000000081526004016105ed90611181565b60405180910390fd5b6001600360008373ffffffffffffffffffffffffffffffffffffffff1673ffffffffffffffffffffffffffffffffffffffff16815260200190815260200160002060006101000a81548160ff0219169083151502179055507f44d6d25963f097ad14f29f06854a01f575648a1ef82f30e562ccd3889717e3398160405161067d91906111b0565b60405180910390a150565b600360003373ffffffffffffffffffffffffffffffffffffffff1673ffffffffffffffffffffffffffffffffffffffff16815260200190815260200160002060009054906101000a900460ff16610714576040517f08c379a000000000000000000000000000000000000000000000000000000000815260040161070b90611181565b60405180910390fd5b60008211801561072657506002548211155b610765576040517f08c379a000000000000000000000000000000000000000000000000000000000815260040161075c90610fb1565b60405180910390fd5b80600160006001856107779190611000565b815260200190815260200160002060060160006101000a81548160ff021916908360028111156107aa576107a9610a88565b5b02179055507f5c0ef1b822a61118d7d262cc5be6edd9efc97699b4547826fc8ce0e23e459483828260028111156107e4576107e3610a88565b5b6040516107f29291906111e7565b60405180910390a15050565b600360003373ffffffffffffffffffffffffffffffffffffffff1673ffffffffffffffffffffffffffffffffffffffff16815260200190815260200160002060009054906101000a900460ff1661088a576040517f08c379a000000000000000000000000000000000000000000000000000000000815260040161088190611181565b60405180910390fd5b6002600081548092919061089d90611210565b919050555060006001600060025481526020019081526020016000209050600254816000018190555085816001018190555084816002018190555083816003018190555082816004018190555081816005018190555060008160060160006101000a81548160ff0219169083600281111561091b5761091a610a88565b5b021790555060008190806001815401808255809150506001900390600052602060002090600702016000909190919091506000820154816000015560018201548160010155600282015481600201556003820154816003015560048201548160040155600582015481600501556006820160009054906101000a900460ff168160060160006101000a81548160ff021916908360028111156109c0576109bf610a88565b5b021790555050507fc13031efc47a01908bfa06fe9e58a96530cf3b93866f3da0f364760bd7aa1aed600254876040516109fa929190611258565b60405180910390a1505050505050565b600060016000838152602001908152602001600020600501549050919050565b600081519050919050565b600082825260208201905092915050565b6000819050602082019050919050565b6000819050919050565b610a6981610a56565b82525050565b6000819050919050565b610a8281610a6f565b82525050565b7f4e487b7100000000000000000000000000000000000000000000000000000000600052602160045260246000fd5b60038110610ac857610ac7610a88565b5b50565b6000819050610ad982610ab7565b919050565b6000610ae982610acb565b9050919050565b610af981610ade565b82525050565b60e082016000820151610b156000850182610a60565b506020820151610b286020850182610a79565b506040820151610b3b6040850182610a79565b506060820151610b4e6060850182610a79565b506080820151610b616080850182610a60565b5060a0820151610b7460a0850182610a60565b5060c0820151610b8760c0850182610af0565b50505050565b6000610b998383610aff565b60e08301905092915050565b6000602082019050919050565b6000610bbd82610a2a565b610bc78185610a35565b9350610bd283610a46565b8060005b83811015610c03578151610bea8882610b8d565b9750610bf583610ba5565b925050600181019050610bd6565b5085935050505092915050565b60006020820190508181036000830152610c2a8184610bb2565b905092915050565b600080fd5b610c4081610a56565b8114610c4b57600080fd5b50565b600081359050610c5d81610c37565b92915050565b60008060408385031215610c7a57610c79610c32565b5b6000610c8885828601610c4e565b9250506020610c9985828601610c4e565b9150509250929050565b60008115159050919050565b610cb881610ca3565b82525050565b6000602082019050610cd36000830184610caf565b92915050565b600073ffffffffffffffffffffffffffffffffffffffff82169050919050565b6000610d0482610cd9565b9050919050565b610d1481610cf9565b8114610d1f57600080fd5b50565b600081359050610d3181610d0b565b92915050565b600060208284031215610d4d57610d4c610c32565b5b6000610d5b84828501610d22565b91505092915050565b610d6d81610a56565b82525050565b6000602082019050610d886000830184610d64565b92915050565b600060208284031215610da457610da3610c32565b5b6000610db284828501610c4e565b91505092915050565b610dc481610a6f565b82525050565b610dd381610ade565b82525050565b600060e082019050610dee600083018a610d64565b610dfb6020830189610dbb565b610e086040830188610dbb565b610e156060830187610dbb565b610e226080830186610d64565b610e2f60a0830185610d64565b610e3c60c0830184610dca565b98975050505050505050565b60038110610e5557600080fd5b50565b600081359050610e6781610e48565b92915050565b60008060408385031215610e8457610e83610c32565b5b6000610e9285828601610c4e565b9250506020610ea385828601610e58565b9150509250929050565b610eb681610a6f565b8114610ec157600080fd5b50565b600081359050610ed381610ead565b92915050565b600080600080600060a08688031215610ef557610ef4610c32565b5b6000610f0388828901610ec4565b9550506020610f1488828901610ec4565b9450506040610f2588828901610ec4565b9350506060610f3688828901610c4e565b9250506080610f4788828901610c4e565b9150509295509295909350565b600082825260208201905092915050565b7f496e76616c69642070726f647563742049440000000000000000000000000000600082015250565b6000610f9b601283610f54565b9150610fa682610f65565b602082019050919050565b60006020820190508181036000830152610fca81610f8e565b9050919050565b7f4e487b7100000000000000000000000000000000000000000000000000000000600052601160045260246000fd5b600061100b82610a56565b915061101683610a56565b925082820390508181111561102e5761102d610fd1565b5b92915050565b60006040820190506110496000830185610d64565b6110566020830184610caf565b9392505050565b7f6e6f7420617574686f72697a6500000000000000000000000000000000000000600082015250565b6000611093600d83610f54565b915061109e8261105d565b602082019050919050565b600060208201905081810360008301526110c281611086565b9050919050565b7f696e76616c69642041646472657373207a65726f000000000000000000000000600082015250565b60006110ff601483610f54565b915061110a826110c9565b602082019050919050565b6000602082019050818103600083015261112e816110f2565b9050919050565b7f4e4f545f415554484f52495a4528290000000000000000000000000000000000600082015250565b600061116b600f83610f54565b915061117682611135565b602082019050919050565b6000602082019050818103600083015261119a8161115e565b9050919050565b6111aa81610cf9565b82525050565b60006020820190506111c560008301846111a1565b92915050565b600060ff82169050919050565b6111e1816111cb565b82525050565b60006040820190506111fc6000830185610d64565b61120960208301846111d8565b9392505050565b600061121b82610a56565b91507fffffffffffffffffffffffffffffffffffffffffffffffffffffffffffffffff820361124d5761124c610fd1565b5b600182019050919050565b600060408201905061126d6000830185610d64565b61127a6020830184610dbb565b939250505056fea2646970667358221220d3dc54c1257d018ed3fe6a9bb1e503c607d67d345d841c0d14cfd3f7589edd8164736f6c63430008180033",
  "linkReferences": {},
  "deployedLinkReferences": {}
}