{
  "_format": "hh-sol-artifact-1",
  "contractName": "ShipmentManagement",
  "sourceName": "contracts/services/ShipmentManagement.sol",
  "abi": [
    {
      "inputs": [],
      "stateMutability": "nonpayable",
      "type": "constructor"
    },
    {
      "anonymous": false,
      "inputs": [
        {
          "indexed": false,
          "internalType": "address",
          "name": "newAdmin",
          "type": "address"
        }
      ],
      "name": "AdminAdded",
      "type": "event"
    },
    {
      "anonymous": false,
      "inputs": [
        {
          "indexed": true,
          "internalType": "address",
          "name": "sender",
          "type": "address"
        },
        {
          "indexed": false,
          "internalType": "address",
          "name": "receiver",
          "type": "address"
        },
        {
          "indexed": false,
          "internalType": "uint256",
          "name": "pickupTime",
          "type": "uint256"
        },
        {
          "indexed": false,
          "internalType": "uint256",
          "name": "distance",
          "type": "uint256"
        }
      ],
      "name": "ShipmentCreated",
      "type": "event"
    },
    {
      "anonymous": false,
      "inputs": [
        {
          "indexed": true,
          "internalType": "address",
          "name": "sender",
          "type": "address"
        },
        {
          "indexed": false,
          "internalType": "address",
          "name": "receiver",
          "type": "address"
        },
        {
          "indexed": false,
          "internalType": "uint256",
          "name": "deliveryTime",
          "type": "uint256"
        }
      ],
      "name": "ShipmentDelivered",
      "type": "event"
    },
    {
      "anonymous": false,
      "inputs": [
        {
          "indexed": true,
          "internalType": "address",
          "name": "sender",
          "type": "address"
        },
        {
          "indexed": false,
          "internalType": "address",
          "name": "receiver",
          "type": "address"
        },
        {
          "indexed": false,
          "internalType": "uint256",
          "name": "pickupTime",
          "type": "uint256"
        }
      ],
      "name": "ShipmentInTransit",
      "type": "event"
    },
    {
      "inputs": [
        {
          "internalType": "address",
          "name": "_admin",
          "type": "address"
        }
      ],
      "name": "addAdmin",
      "outputs": [],
      "stateMutability": "nonpayable",
      "type": "function"
    },
    {
      "inputs": [
        {
          "internalType": "address",
          "name": "sender",
          "type": "address"
        },
        {
          "internalType": "uint256",
          "name": "index",
          "type": "uint256"
        }
      ],
      "name": "completeShipment",
      "outputs": [],
      "stateMutability": "nonpayable",
      "type": "function"
    },
    {
      "inputs": [
        {
          "internalType": "address",
          "name": "receiver",
          "type": "address"
        },
        {
          "internalType": "uint256",
          "name": "pickupTime",
          "type": "uint256"
        },
        {
          "internalType": "uint256",
          "name": "distance",
          "type": "uint256"
        }
      ],
      "name": "createShipment",
      "outputs": [],
      "stateMutability": "nonpayable",
      "type": "function"
    },
    {
      "inputs": [
        {
          "internalType": "address",
          "name": "sender",
          "type": "address"
        },
        {
          "internalType": "uint256",
          "name": "index",
          "type": "uint256"
        }
      ],
      "name": "getShipment",
      "outputs": [
        {
          "components": [
            {
              "internalType": "address",
              "name": "sender",
              "type": "address"
            },
            {
              "internalType": "address",
              "name": "receiver",
              "type": "address"
            },
            {
              "internalType": "uint256",
              "name": "pickupTime",
              "type": "uint256"
            },
            {
              "internalType": "uint256",
              "name": "deliveryTime",
              "type": "uint256"
            },
            {
              "internalType": "uint256",
              "name": "distance",
              "type": "uint256"
            },
            {
              "internalType": "enum ShipmentManagement.ShipmentStatus",
              "name": "status",
              "type": "uint8"
            },
            {
              "internalType": "bool",
              "name": "isPaid",
              "type": "bool"
            }
          ],
          "internalType": "struct ShipmentManagement.Shipment",
          "name": "",
          "type": "tuple"
        }
      ],
      "stateMutability": "view",
      "type": "function"
    },
    {
      "inputs": [
        {
          "internalType": "address",
          "name": "sender",
          "type": "address"
        }
      ],
      "name": "getShipmentCount",
      "outputs": [
        {
          "internalType": "uint256",
          "name": "",
          "type": "uint256"
        }
      ],
      "stateMutability": "view",
      "type": "function"
    },
    {
      "inputs": [
        {
          "internalType": "address",
          "name": "",
          "type": "address"
        }
      ],
      "name": "isAdmin",
      "outputs": [
        {
          "internalType": "bool",
          "name": "",
          "type": "bool"
        }
      ],
      "stateMutability": "view",
      "type": "function"
    },
    {
      "inputs": [],
      "name": "shipmentCount",
      "outputs": [
        {
          "internalType": "uint256",
          "name": "",
          "type": "uint256"
        }
      ],
      "stateMutability": "view",
      "type": "function"
    },
    {
      "inputs": [
        {
          "internalType": "address",
          "name": "",
          "type": "address"
        },
        {
          "internalType": "uint256",
          "name": "",
          "type": "uint256"
        }
      ],
      "name": "shipments",
      "outputs": [
        {
          "internalType": "address",
          "name": "sender",
          "type": "address"
        },
        {
          "internalType": "address",
          "name": "receiver",
          "type": "address"
        },
        {
          "internalType": "uint256",
          "name": "pickupTime",
          "type": "uint256"
        },
        {
          "internalType": "uint256",
          "name": "deliveryTime",
          "type": "uint256"
        },
        {
          "internalType": "uint256",
          "name": "distance",
          "type": "uint256"
        },
        {
          "internalType": "enum ShipmentManagement.ShipmentStatus",
          "name": "status",
          "type": "uint8"
        },
        {
          "internalType": "bool",
          "name": "isPaid",
          "type": "bool"
        }
      ],
      "stateMutability": "view",
      "type": "function"
    },
    {
      "inputs": [
        {
          "internalType": "address",
          "name": "sender",
          "type": "address"
        },
        {
          "internalType": "uint256",
          "name": "index",
          "type": "uint256"
        }
      ],
      "name": "startShipment",
      "outputs": [],
      "stateMutability": "nonpayable",
      "type": "function"
    }
  ],
  "bytecode": "0x608060405234801561001057600080fd5b5033600360006101000a81548173ffffffffffffffffffffffffffffffffffffffff021916908373ffffffffffffffffffffffffffffffffffffffff160217905550611565806100616000396000f3fe608060405234801561001057600080fd5b50600436106100935760003560e01c80638365da54116100665780638365da5414610136578063aace20b714610166578063b7dfd93d14610184578063eb62c89c146101b4578063fccdaaa2146101d057610093565b806324d7806c1461009857806347cf953a146100c85780635667e02f146100e4578063704802751461011a575b600080fd5b6100b260048036038101906100ad9190610eb1565b6101ec565b6040516100bf9190610ef9565b60405180910390f35b6100e260048036038101906100dd9190610f4a565b61020c565b005b6100fe60048036038101906100f99190610f9d565b6104e8565b6040516101119796959493929190611072565b60405180910390f35b610134600480360381019061012f9190610eb1565b6105a1565b005b610150600480360381019061014b9190610f9d565b6107be565b60405161015d91906111ab565b60405180910390f35b61016e610957565b60405161017b91906111c6565b60405180910390f35b61019e60048036038101906101999190610eb1565b61095d565b6040516101ab91906111c6565b60405180910390f35b6101ce60048036038101906101c99190610f9d565b6109a8565b005b6101ea60048036038101906101e59190610f9d565b610bb8565b005b60016020528060005260406000206000915054906101000a900460ff1681565b600160003373ffffffffffffffffffffffffffffffffffffffff1673ffffffffffffffffffffffffffffffffffffffff16815260200190815260200160002060009054906101000a900460ff16610298576040517f08c379a000000000000000000000000000000000000000000000000000000000815260040161028f9061123e565b60405180910390fd5b60006040518060e001604052803373ffffffffffffffffffffffffffffffffffffffff1681526020018573ffffffffffffffffffffffffffffffffffffffff168152602001848152602001600081526020018381526020016000600281111561030457610303610ffb565b5b81526020016000151581525090506000803373ffffffffffffffffffffffffffffffffffffffff1673ffffffffffffffffffffffffffffffffffffffff16815260200190815260200160002081908060018154018082558091505060019003906000526020600020906006020160009091909190915060008201518160000160006101000a81548173ffffffffffffffffffffffffffffffffffffffff021916908373ffffffffffffffffffffffffffffffffffffffff16021790555060208201518160010160006101000a81548173ffffffffffffffffffffffffffffffffffffffff021916908373ffffffffffffffffffffffffffffffffffffffff16021790555060408201518160020155606082015181600301556080820151816004015560a08201518160050160006101000a81548160ff0219169083600281111561045157610450610ffb565b5b021790555060c08201518160050160016101000a81548160ff02191690831515021790555050506002600081548092919061048b9061128d565b91905055503373ffffffffffffffffffffffffffffffffffffffff167f7342e16106c69a5a19241c8d4d41dbf5e8dd540542c164a607126ee6389c40b68585856040516104da939291906112d5565b60405180910390a250505050565b6000602052816000526040600020818154811061050457600080fd5b9060005260206000209060060201600091509150508060000160009054906101000a900473ffffffffffffffffffffffffffffffffffffffff16908060010160009054906101000a900473ffffffffffffffffffffffffffffffffffffffff16908060020154908060030154908060040154908060050160009054906101000a900460ff16908060050160019054906101000a900460ff16905087565b3373ffffffffffffffffffffffffffffffffffffffff16600360009054906101000a900473ffffffffffffffffffffffffffffffffffffffff1673ffffffffffffffffffffffffffffffffffffffff1614610631576040517f08c379a000000000000000000000000000000000000000000000000000000000815260040161062890611358565b60405180910390fd5b600073ffffffffffffffffffffffffffffffffffffffff168173ffffffffffffffffffffffffffffffffffffffff16036106a0576040517f08c379a0000000000000000000000000000000000000000000000000000000008152600401610697906113c4565b60405180910390fd5b600160008273ffffffffffffffffffffffffffffffffffffffff1673ffffffffffffffffffffffffffffffffffffffff16815260200190815260200160002060009054906101000a900460ff161561072d576040517f08c379a00000000000000000000000000000000000000000000000000000000081526004016107249061123e565b60405180910390fd5b60018060008373ffffffffffffffffffffffffffffffffffffffff1673ffffffffffffffffffffffffffffffffffffffff16815260200190815260200160002060006101000a81548160ff0219169083151502179055507f44d6d25963f097ad14f29f06854a01f575648a1ef82f30e562ccd3889717e339816040516107b391906113e4565b60405180910390a150565b6107c6610dd1565b6000808473ffffffffffffffffffffffffffffffffffffffff1673ffffffffffffffffffffffffffffffffffffffff1681526020019081526020016000208281548110610816576108156113ff565b5b90600052602060002090600602016040518060e00160405290816000820160009054906101000a900473ffffffffffffffffffffffffffffffffffffffff1673ffffffffffffffffffffffffffffffffffffffff1673ffffffffffffffffffffffffffffffffffffffff1681526020016001820160009054906101000a900473ffffffffffffffffffffffffffffffffffffffff1673ffffffffffffffffffffffffffffffffffffffff1673ffffffffffffffffffffffffffffffffffffffff1681526020016002820154815260200160038201548152602001600482015481526020016005820160009054906101000a900460ff16600281111561091e5761091d610ffb565b5b60028111156109305761092f610ffb565b5b81526020016005820160019054906101000a900460ff161515151581525050905092915050565b60025481565b60008060008373ffffffffffffffffffffffffffffffffffffffff1673ffffffffffffffffffffffffffffffffffffffff168152602001908152602001600020805490509050919050565b600160003373ffffffffffffffffffffffffffffffffffffffff1673ffffffffffffffffffffffffffffffffffffffff16815260200190815260200160002060009054906101000a900460ff16610a34576040517f08c379a0000000000000000000000000000000000000000000000000000000008152600401610a2b9061123e565b60405180910390fd5b60008060008473ffffffffffffffffffffffffffffffffffffffff1673ffffffffffffffffffffffffffffffffffffffff1681526020019081526020016000208281548110610a8657610a856113ff565b5b9060005260206000209060060201905060006002811115610aaa57610aa9610ffb565b5b8160050160009054906101000a900460ff166002811115610ace57610acd610ffb565b5b14610b0e576040517f08c379a0000000000000000000000000000000000000000000000000000000008152600401610b059061147a565b60405180910390fd5b60018160050160006101000a81548160ff02191690836002811115610b3657610b35610ffb565b5b02179055508273ffffffffffffffffffffffffffffffffffffffff167faafab9f94340179ff9cefd29621e1772a4b8efab8023163838f1b0a8f6ce5df58260010160009054906101000a900473ffffffffffffffffffffffffffffffffffffffff168360020154604051610bab92919061149a565b60405180910390a2505050565b600160003373ffffffffffffffffffffffffffffffffffffffff1673ffffffffffffffffffffffffffffffffffffffff16815260200190815260200160002060009054906101000a900460ff16610c44576040517f08c379a0000000000000000000000000000000000000000000000000000000008152600401610c3b9061123e565b60405180910390fd5b60008060008473ffffffffffffffffffffffffffffffffffffffff1673ffffffffffffffffffffffffffffffffffffffff1681526020019081526020016000208281548110610c9657610c956113ff565b5b9060005260206000209060060201905060016002811115610cba57610cb9610ffb565b5b8160050160009054906101000a900460ff166002811115610cde57610cdd610ffb565b5b14610d1e576040517f08c379a0000000000000000000000000000000000000000000000000000000008152600401610d159061150f565b60405180910390fd5b60028160050160006101000a81548160ff02191690836002811115610d4657610d45610ffb565b5b02179055504281600301819055508273ffffffffffffffffffffffffffffffffffffffff167f3746ccceb54f44c9b0ee0120e596168d07ec9f6ca303cfdd9810d3b2e2686a2e8260010160009054906101000a900473ffffffffffffffffffffffffffffffffffffffff168360030154604051610dc492919061149a565b60405180910390a2505050565b6040518060e00160405280600073ffffffffffffffffffffffffffffffffffffffff168152602001600073ffffffffffffffffffffffffffffffffffffffff16815260200160008152602001600081526020016000815260200160006002811115610e3f57610e3e610ffb565b5b81526020016000151581525090565b600080fd5b600073ffffffffffffffffffffffffffffffffffffffff82169050919050565b6000610e7e82610e53565b9050919050565b610e8e81610e73565b8114610e9957600080fd5b50565b600081359050610eab81610e85565b92915050565b600060208284031215610ec757610ec6610e4e565b5b6000610ed584828501610e9c565b91505092915050565b60008115159050919050565b610ef381610ede565b82525050565b6000602082019050610f0e6000830184610eea565b92915050565b6000819050919050565b610f2781610f14565b8114610f3257600080fd5b50565b600081359050610f4481610f1e565b92915050565b600080600060608486031215610f6357610f62610e4e565b5b6000610f7186828701610e9c565b9350506020610f8286828701610f35565b9250506040610f9386828701610f35565b9150509250925092565b60008060408385031215610fb457610fb3610e4e565b5b6000610fc285828601610e9c565b9250506020610fd385828601610f35565b9150509250929050565b610fe681610e73565b82525050565b610ff581610f14565b82525050565b7f4e487b7100000000000000000000000000000000000000000000000000000000600052602160045260246000fd5b6003811061103b5761103a610ffb565b5b50565b600081905061104c8261102a565b919050565b600061105c8261103e565b9050919050565b61106c81611051565b82525050565b600060e082019050611087600083018a610fdd565b6110946020830189610fdd565b6110a16040830188610fec565b6110ae6060830187610fec565b6110bb6080830186610fec565b6110c860a0830185611063565b6110d560c0830184610eea565b98975050505050505050565b6110ea81610e73565b82525050565b6110f981610f14565b82525050565b61110881611051565b82525050565b61111781610ede565b82525050565b60e08201600082015161113360008501826110e1565b50602082015161114660208501826110e1565b50604082015161115960408501826110f0565b50606082015161116c60608501826110f0565b50608082015161117f60808501826110f0565b5060a082015161119260a08501826110ff565b5060c08201516111a560c085018261110e565b50505050565b600060e0820190506111c0600083018461111d565b92915050565b60006020820190506111db6000830184610fec565b92915050565b600082825260208201905092915050565b7f4e4f545f415554484f52495a4528290000000000000000000000000000000000600082015250565b6000611228600f836111e1565b9150611233826111f2565b602082019050919050565b600060208201905081810360008301526112578161121b565b9050919050565b7f4e487b7100000000000000000000000000000000000000000000000000000000600052601160045260246000fd5b600061129882610f14565b91507fffffffffffffffffffffffffffffffffffffffffffffffffffffffffffffffff82036112ca576112c961125e565b5b600182019050919050565b60006060820190506112ea6000830186610fdd565b6112f76020830185610fec565b6113046040830184610fec565b949350505050565b7f6e6f7420617574686f72697a6500000000000000000000000000000000000000600082015250565b6000611342600d836111e1565b915061134d8261130c565b602082019050919050565b6000602082019050818103600083015261137181611335565b9050919050565b7f696e76616c69642041646472657373207a65726f000000000000000000000000600082015250565b60006113ae6014836111e1565b91506113b982611378565b602082019050919050565b600060208201905081810360008301526113dd816113a1565b9050919050565b60006020820190506113f96000830184610fdd565b92915050565b7f4e487b7100000000000000000000000000000000000000000000000000000000600052603260045260246000fd5b7f536869706d656e74206973206e6f742070656e64696e67000000000000000000600082015250565b60006114646017836111e1565b915061146f8261142e565b602082019050919050565b6000602082019050818103600083015261149381611457565b9050919050565b60006040820190506114af6000830185610fdd565b6114bc6020830184610fec565b9392505050565b7f536869706d656e74206e6f7420696e207472616e736974000000000000000000600082015250565b60006114f96017836111e1565b9150611504826114c3565b602082019050919050565b60006020820190508181036000830152611528816114ec565b905091905056fea264697066735822122061668864c0a8342d0674e5149750927e161402d19da0c79739aa7a6afad5c76b64736f6c63430008180033",
  "linkReferences": {},
  "deployedLinkReferences": {}
}