{
  "_format": "hh-sol-artifact-1",
  "contractName": "UserManagement",
  "sourceName": "contracts/services/UserManagement.sol",
  "abi": [
    {
      "inputs": [
        {
          "internalType": "address",
          "name": "productManagementAddress",
          "type": "address"
        }
      ],
      "stateMutability": "nonpayable",
      "type": "constructor"
    },
    {
      "anonymous": false,
      "inputs": [
        {
          "indexed": true,
          "internalType": "address",
          "name": "user",
          "type": "address"
        }
      ],
      "name": "CartCleared",
      "type": "event"
    },
    {
      "anonymous": false,
      "inputs": [
        {
          "indexed": true,
          "internalType": "address",
          "name": "user",
          "type": "address"
        },
        {
          "indexed": false,
          "internalType": "uint256",
          "name": "productId",
          "type": "uint256"
        }
      ],
      "name": "CartItemRemoved",
      "type": "event"
    },
    {
      "anonymous": false,
      "inputs": [
        {
          "indexed": true,
          "internalType": "address",
          "name": "user",
          "type": "address"
        },
        {
          "indexed": false,
          "internalType": "uint256",
          "name": "productId",
          "type": "uint256"
        },
        {
          "indexed": false,
          "internalType": "uint256",
          "name": "quantity",
          "type": "uint256"
        }
      ],
      "name": "CartUpdated",
      "type": "event"
    },
    {
      "inputs": [
        {
          "internalType": "uint256",
          "name": "productId",
          "type": "uint256"
        },
        {
          "internalType": "uint256",
          "name": "quantity",
          "type": "uint256"
        }
      ],
      "name": "addProductToCart",
      "outputs": [],
      "stateMutability": "nonpayable",
      "type": "function"
    },
    {
      "inputs": [
        {
          "internalType": "address",
          "name": "_user",
          "type": "address"
        }
      ],
      "name": "clearCart",
      "outputs": [],
      "stateMutability": "nonpayable",
      "type": "function"
    },
    {
      "inputs": [],
      "name": "getCartItems",
      "outputs": [
        {
          "components": [
            {
              "internalType": "uint256",
              "name": "productId",
              "type": "uint256"
            },
            {
              "internalType": "uint256",
              "name": "quantity",
              "type": "uint256"
            }
          ],
          "internalType": "struct UserManagement.CartItem[]",
          "name": "",
          "type": "tuple[]"
        }
      ],
      "stateMutability": "view",
      "type": "function"
    },
    {
      "inputs": [
        {
          "internalType": "uint256",
          "name": "index",
          "type": "uint256"
        }
      ],
      "name": "removeCartItem",
      "outputs": [],
      "stateMutability": "nonpayable",
      "type": "function"
    },
    {
      "inputs": [
        {
          "internalType": "address",
          "name": "",
          "type": "address"
        }
      ],
      "name": "users",
      "outputs": [
        {
          "internalType": "address",
          "name": "userAddress",
          "type": "address"
        }
      ],
      "stateMutability": "view",
      "type": "function"
    }
  ],
  "bytecode": "0x608060405234801561001057600080fd5b50604051610f88380380610f88833981810160405281019061003291906100dc565b80600160006101000a81548173ffffffffffffffffffffffffffffffffffffffff021916908373ffffffffffffffffffffffffffffffffffffffff16021790555050610109565b600080fd5b600073ffffffffffffffffffffffffffffffffffffffff82169050919050565b60006100a98261007e565b9050919050565b6100b98161009e565b81146100c457600080fd5b50565b6000815190506100d6816100b0565b92915050565b6000602082840312156100f2576100f1610079565b5b6000610100848285016100c7565b91505092915050565b610e70806101186000396000f3fe608060405234801561001057600080fd5b50600436106100575760003560e01c806305e410dd1461005c5780638bb2700a1461007a578063a87430ba14610096578063bd86d013146100c6578063d4aafffe146100e2575b600080fd5b6100646100fe565b6040516100719190610977565b60405180910390f35b610094600480360381019061008f91906109ca565b6101b0565b005b6100b060048036038101906100ab9190610a68565b61045e565b6040516100bd9190610aa4565b60405180910390f35b6100e060048036038101906100db9190610a68565b61049c565b005b6100fc60048036038101906100f79190610abf565b61052f565b005b60606000803373ffffffffffffffffffffffffffffffffffffffff1673ffffffffffffffffffffffffffffffffffffffff168152602001908152602001600020600101805480602002602001604051908101604052809291908181526020016000905b828210156101a757838290600052602060002090600202016040518060400160405290816000820154815260200160018201548152505081526020019060010190610161565b50505050905090565b600081116101f3576040517f08c379a00000000000000000000000000000000000000000000000000000000081526004016101ea90610b6f565b60405180910390fd5b600160009054906101000a900473ffffffffffffffffffffffffffffffffffffffff1673ffffffffffffffffffffffffffffffffffffffff16630f1298d983836040518363ffffffff1660e01b8152600401610250929190610b9e565b6020604051808303816000875af115801561026f573d6000803e3d6000fd5b505050506040513d601f19601f820116820180604052508101906102939190610bff565b6102d2576040517f08c379a00000000000000000000000000000000000000000000000000000000081526004016102c990610c9e565b60405180910390fd5b60008060003373ffffffffffffffffffffffffffffffffffffffff1673ffffffffffffffffffffffffffffffffffffffff16815260200190815260200160002090506000805b82600101805490508110156103a9578483600101828154811061033e5761033d610cbe565b5b9060005260206000209060020201600001540361039c578383600101828154811061036c5761036b610cbe565b5b9060005260206000209060020201600101600082825461038c9190610d1c565b92505081905550600191506103a9565b8080600101915050610318565b508061040857816001016040518060400160405280868152602001858152509080600181540180825580915050600190039060005260206000209060020201600090919091909150600082015181600001556020820151816001015550505b3373ffffffffffffffffffffffffffffffffffffffff167f5ea7c0b5bade964890a6c61b75bb90bcc69fbb7fee142ded8f46820ba7d47eee8585604051610450929190610b9e565b60405180910390a250505050565b60006020528060005260406000206000915090508060000160009054906101000a900473ffffffffffffffffffffffffffffffffffffffff16905081565b6000808273ffffffffffffffffffffffffffffffffffffffff1673ffffffffffffffffffffffffffffffffffffffff16815260200190815260200160002060010160006104e99190610835565b8073ffffffffffffffffffffffffffffffffffffffff167fc65a75b7a288595a934865dd0ab8eb43ac6e4f41fa21ad52cae2f31b3a68bca260405160405180910390a250565b6000803373ffffffffffffffffffffffffffffffffffffffff1673ffffffffffffffffffffffffffffffffffffffff1681526020019081526020016000206001018054905081106105b5576040517f08c379a00000000000000000000000000000000000000000000000000000000081526004016105ac90610d9c565b60405180910390fd5b3373ffffffffffffffffffffffffffffffffffffffff167f1ff6fdafb329bc793bba0305f4e4b334bab99f154c261e62c190437c084ec5506000803373ffffffffffffffffffffffffffffffffffffffff1673ffffffffffffffffffffffffffffffffffffffff16815260200190815260200160002060010183815481106106405761063f610cbe565b5b90600052602060002090600202016000015460405161065f9190610dbc565b60405180910390a260008190505b60016000803373ffffffffffffffffffffffffffffffffffffffff1673ffffffffffffffffffffffffffffffffffffffff168152602001908152602001600020600101805490506106be9190610dd7565b8110156107b7576000803373ffffffffffffffffffffffffffffffffffffffff1673ffffffffffffffffffffffffffffffffffffffff1681526020019081526020016000206001016001826107139190610d1c565b8154811061072457610723610cbe565b5b90600052602060002090600202016000803373ffffffffffffffffffffffffffffffffffffffff1673ffffffffffffffffffffffffffffffffffffffff168152602001908152602001600020600101828154811061078557610784610cbe565b5b90600052602060002090600202016000820154816000015560018201548160010155905050808060010191505061066d565b506000803373ffffffffffffffffffffffffffffffffffffffff1673ffffffffffffffffffffffffffffffffffffffff16815260200190815260200160002060010180548061080957610808610e0b565b5b600190038181906000526020600020906002020160008082016000905560018201600090555050905550565b50805460008255600202906000526020600020908101906108569190610859565b50565b5b8082111561087c5760008082016000905560018201600090555060020161085a565b5090565b600081519050919050565b600082825260208201905092915050565b6000819050602082019050919050565b6000819050919050565b6108bf816108ac565b82525050565b6040820160008201516108db60008501826108b6565b5060208201516108ee60208501826108b6565b50505050565b600061090083836108c5565b60408301905092915050565b6000602082019050919050565b600061092482610880565b61092e818561088b565b93506109398361089c565b8060005b8381101561096a57815161095188826108f4565b975061095c8361090c565b92505060018101905061093d565b5085935050505092915050565b600060208201905081810360008301526109918184610919565b905092915050565b600080fd5b6109a7816108ac565b81146109b257600080fd5b50565b6000813590506109c48161099e565b92915050565b600080604083850312156109e1576109e0610999565b5b60006109ef858286016109b5565b9250506020610a00858286016109b5565b9150509250929050565b600073ffffffffffffffffffffffffffffffffffffffff82169050919050565b6000610a3582610a0a565b9050919050565b610a4581610a2a565b8114610a5057600080fd5b50565b600081359050610a6281610a3c565b92915050565b600060208284031215610a7e57610a7d610999565b5b6000610a8c84828501610a53565b91505092915050565b610a9e81610a2a565b82525050565b6000602082019050610ab96000830184610a95565b92915050565b600060208284031215610ad557610ad4610999565b5b6000610ae3848285016109b5565b91505092915050565b600082825260208201905092915050565b7f5175616e74697479206d7573742062652067726561746572207468616e207a6560008201527f726f000000000000000000000000000000000000000000000000000000000000602082015250565b6000610b59602283610aec565b9150610b6482610afd565b604082019050919050565b60006020820190508181036000830152610b8881610b4c565b9050919050565b610b98816108ac565b82525050565b6000604082019050610bb36000830185610b8f565b610bc06020830184610b8f565b9392505050565b60008115159050919050565b610bdc81610bc7565b8114610be757600080fd5b50565b600081519050610bf981610bd3565b92915050565b600060208284031215610c1557610c14610999565b5b6000610c2384828501610bea565b91505092915050565b7f50726f64756374206e6f7420617661696c61626c65206f7220696e737566666960008201527f6369656e74207175616e74697479000000000000000000000000000000000000602082015250565b6000610c88602e83610aec565b9150610c9382610c2c565b604082019050919050565b60006020820190508181036000830152610cb781610c7b565b9050919050565b7f4e487b7100000000000000000000000000000000000000000000000000000000600052603260045260246000fd5b7f4e487b7100000000000000000000000000000000000000000000000000000000600052601160045260246000fd5b6000610d27826108ac565b9150610d32836108ac565b9250828201905080821115610d4a57610d49610ced565b5b92915050565b7f496e646578206f7574206f6620626f756e647300000000000000000000000000600082015250565b6000610d86601383610aec565b9150610d9182610d50565b602082019050919050565b60006020820190508181036000830152610db581610d79565b9050919050565b6000602082019050610dd16000830184610b8f565b92915050565b6000610de2826108ac565b9150610ded836108ac565b9250828203905081811115610e0557610e04610ced565b5b92915050565b7f4e487b7100000000000000000000000000000000000000000000000000000000600052603160045260246000fdfea2646970667358221220696efabba8267ae00a1b5838578b59f1873ae6885419fded2342d54488a7bc5a64736f6c63430008180033",
  "linkReferences": {},
  "deployedLinkReferences": {}
}