{
  "_format": "hh-sol-artifact-1",
  "contractName": "PaymentProcessing",
  "sourceName": "contracts/services/PaymentProcessing.sol",
  "abi": [
    {
      "inputs": [
        {
          "internalType": "address",
          "name": "_tokenAddress",
          "type": "address"
        },
        {
          "internalType": "address",
          "name": "userManagementAddress",
          "type": "address"
        },
        {
          "internalType": "address",
          "name": "productManagementAddress",
          "type": "address"
        }
      ],
      "stateMutability": "nonpayable",
      "type": "constructor"
    },
    {
      "anonymous": false,
      "inputs": [
        {
          "indexed": true,
          "internalType": "address",
          "name": "user",
          "type": "address"
        },
        {
          "indexed": false,
          "internalType": "uint256",
          "name": "amount",
          "type": "uint256"
        }
      ],
      "name": "PaymentProcessed",
      "type": "event"
    },
    {
      "anonymous": false,
      "inputs": [
        {
          "indexed": true,
          "internalType": "address",
          "name": "user",
          "type": "address"
        },
        {
          "indexed": false,
          "internalType": "uint256",
          "name": "amount",
          "type": "uint256"
        }
      ],
      "name": "PurchaseCompleted",
      "type": "event"
    },
    {
      "inputs": [],
      "name": "calculateTotal",
      "outputs": [
        {
          "internalType": "uint256",
          "name": "total",
          "type": "uint256"
        }
      ],
      "stateMutability": "view",
      "type": "function"
    },
    {
      "inputs": [],
      "name": "emaxToken",
      "outputs": [
        {
          "internalType": "contract IERC20",
          "name": "",
          "type": "address"
        }
      ],
      "stateMutability": "view",
      "type": "function"
    },
    {
      "inputs": [
        {
          "internalType": "address",
          "name": "_receiver",
          "type": "address"
        }
      ],
      "name": "mintToken",
      "outputs": [],
      "stateMutability": "nonpayable",
      "type": "function"
    },
    {
      "inputs": [
        {
          "internalType": "address",
          "name": "",
          "type": "address"
        }
      ],
      "name": "payments",
      "outputs": [
        {
          "internalType": "uint256",
          "name": "",
          "type": "uint256"
        }
      ],
      "stateMutability": "view",
      "type": "function"
    },
    {
      "inputs": [
        {
          "internalType": "address",
          "name": "_user",
          "type": "address"
        }
      ],
      "name": "processPayment",
      "outputs": [],
      "stateMutability": "nonpayable",
      "type": "function"
    }
  ],
  "bytecode": "0x60806040523480156200001157600080fd5b50604051620010343803806200103483398181016040528101906200003791906200016c565b826000806101000a81548173ffffffffffffffffffffffffffffffffffffffff021916908373ffffffffffffffffffffffffffffffffffffffff16021790555081600160006101000a81548173ffffffffffffffffffffffffffffffffffffffff021916908373ffffffffffffffffffffffffffffffffffffffff16021790555080600260006101000a81548173ffffffffffffffffffffffffffffffffffffffff021916908373ffffffffffffffffffffffffffffffffffffffff160217905550505050620001c8565b600080fd5b600073ffffffffffffffffffffffffffffffffffffffff82169050919050565b6000620001348262000107565b9050919050565b620001468162000127565b81146200015257600080fd5b50565b60008151905062000166816200013b565b92915050565b60008060006060848603121562000188576200018762000102565b5b6000620001988682870162000155565b9350506020620001ab8682870162000155565b9250506040620001be8682870162000155565b9150509250925092565b610e5c80620001d86000396000f3fe608060405234801561001057600080fd5b50600436106100575760003560e01c806301173a741461005c57806380a52b99146100785780638fe123d714610096578063e2982c21146100b2578063e2f3d4b5146100e2575b600080fd5b610076600480360381019061007191906107a8565b610100565b005b610080610201565b60405161008d9190610834565b60405180910390f35b6100b060048036038101906100ab91906107a8565b610225565b005b6100cc60048036038101906100c791906107a8565b61056f565b6040516100d99190610868565b60405180910390f35b6100ea610587565b6040516100f79190610868565b60405180910390f35b600073ffffffffffffffffffffffffffffffffffffffff168173ffffffffffffffffffffffffffffffffffffffff160361016f576040517f08c379a0000000000000000000000000000000000000000000000000000000008152600401610166906108e0565b60405180910390fd5b60008054906101000a900473ffffffffffffffffffffffffffffffffffffffff1673ffffffffffffffffffffffffffffffffffffffff166340c10f19826127106040518363ffffffff1660e01b81526004016101cc92919061094a565b600060405180830381600087803b1580156101e657600080fd5b505af11580156101fa573d6000803e3d6000fd5b5050505050565b60008054906101000a900473ffffffffffffffffffffffffffffffffffffffff1681565b600061022f610587565b90508060008054906101000a900473ffffffffffffffffffffffffffffffffffffffff1673ffffffffffffffffffffffffffffffffffffffff166370a08231846040518263ffffffff1660e01b815260040161028b9190610973565b602060405180830381865afa1580156102a8573d6000803e3d6000fd5b505050506040513d601f19601f820116820180604052508101906102cc91906109ba565b101561030d576040517f08c379a000000000000000000000000000000000000000000000000000000000815260040161030490610a33565b60405180910390fd5b60008054906101000a900473ffffffffffffffffffffffffffffffffffffffff1673ffffffffffffffffffffffffffffffffffffffff166323b872dd8330846040518463ffffffff1660e01b815260040161036a93929190610a53565b6020604051808303816000875af1158015610389573d6000803e3d6000fd5b505050506040513d601f19601f820116820180604052508101906103ad9190610ac2565b6103ec576040517f08c379a00000000000000000000000000000000000000000000000000000000081526004016103e390610b3b565b60405180910390fd5b80600360008473ffffffffffffffffffffffffffffffffffffffff1673ffffffffffffffffffffffffffffffffffffffff168152602001908152602001600020600082825461043b9190610b8a565b92505081905550600160009054906101000a900473ffffffffffffffffffffffffffffffffffffffff1673ffffffffffffffffffffffffffffffffffffffff1663bd86d013836040518263ffffffff1660e01b815260040161049d9190610973565b600060405180830381600087803b1580156104b757600080fd5b505af11580156104cb573d6000803e3d6000fd5b505050508173ffffffffffffffffffffffffffffffffffffffff167fa5957fefb5b0f981554450d4d8dde003083cd202e3d5a2992e09c88ad1f0d791826040516105159190610868565b60405180910390a28173ffffffffffffffffffffffffffffffffffffffff167f2cdcd36462682c80d338eaafb121846413e1cff6fb13c3b013080acc63e70e4e826040516105639190610868565b60405180910390a25050565b60036020528060005260406000206000915090505481565b600080600160009054906101000a900473ffffffffffffffffffffffffffffffffffffffff1673ffffffffffffffffffffffffffffffffffffffff166305e410dd6040518163ffffffff1660e01b8152600401600060405180830381865afa1580156105f7573d6000803e3d6000fd5b505050506040513d6000823e3d601f19601f820116820180604052508101906106209190610d6c565b905060005b8151811015610731576000600260009054906101000a900473ffffffffffffffffffffffffffffffffffffffff1673ffffffffffffffffffffffffffffffffffffffff1663fd68b3ff84848151811061068157610680610db5565b5b6020026020010151600001516040518263ffffffff1660e01b81526004016106a99190610868565b602060405180830381865afa1580156106c6573d6000803e3d6000fd5b505050506040513d601f19601f820116820180604052508101906106ea91906109ba565b90508282815181106106ff576106fe610db5565b5b602002602001015160200151816107169190610de4565b846107219190610b8a565b9350508080600101915050610625565b505090565b6000604051905090565b600080fd5b600080fd5b600073ffffffffffffffffffffffffffffffffffffffff82169050919050565b60006107758261074a565b9050919050565b6107858161076a565b811461079057600080fd5b50565b6000813590506107a28161077c565b92915050565b6000602082840312156107be576107bd610740565b5b60006107cc84828501610793565b91505092915050565b6000819050919050565b60006107fa6107f56107f08461074a565b6107d5565b61074a565b9050919050565b600061080c826107df565b9050919050565b600061081e82610801565b9050919050565b61082e81610813565b82525050565b60006020820190506108496000830184610825565b92915050565b6000819050919050565b6108628161084f565b82525050565b600060208201905061087d6000830184610859565b92915050565b600082825260208201905092915050565b7f496e76616c696420616464726573733a207a65726f2061646472657373000000600082015250565b60006108ca601d83610883565b91506108d582610894565b602082019050919050565b600060208201905081810360008301526108f9816108bd565b9050919050565b6109098161076a565b82525050565b6000819050919050565b600061093461092f61092a8461090f565b6107d5565b61084f565b9050919050565b61094481610919565b82525050565b600060408201905061095f6000830185610900565b61096c602083018461093b565b9392505050565b60006020820190506109886000830184610900565b92915050565b6109978161084f565b81146109a257600080fd5b50565b6000815190506109b48161098e565b92915050565b6000602082840312156109d0576109cf610740565b5b60006109de848285016109a5565b91505092915050565b7f496e73756666696369656e742062616c616e6365000000000000000000000000600082015250565b6000610a1d601483610883565b9150610a28826109e7565b602082019050919050565b60006020820190508181036000830152610a4c81610a10565b9050919050565b6000606082019050610a686000830186610900565b610a756020830185610900565b610a826040830184610859565b949350505050565b60008115159050919050565b610a9f81610a8a565b8114610aaa57600080fd5b50565b600081519050610abc81610a96565b92915050565b600060208284031215610ad857610ad7610740565b5b6000610ae684828501610aad565b91505092915050565b7f4661696c656420746f207472616e7366657220746f6b656e7300000000000000600082015250565b6000610b25601983610883565b9150610b3082610aef565b602082019050919050565b60006020820190508181036000830152610b5481610b18565b9050919050565b7f4e487b7100000000000000000000000000000000000000000000000000000000600052601160045260246000fd5b6000610b958261084f565b9150610ba08361084f565b9250828201905080821115610bb857610bb7610b5b565b5b92915050565b600080fd5b6000601f19601f8301169050919050565b7f4e487b7100000000000000000000000000000000000000000000000000000000600052604160045260246000fd5b610c0c82610bc3565b810181811067ffffffffffffffff82111715610c2b57610c2a610bd4565b5b80604052505050565b6000610c3e610736565b9050610c4a8282610c03565b919050565b600067ffffffffffffffff821115610c6a57610c69610bd4565b5b602082029050602081019050919050565b600080fd5b600080fd5b600060408284031215610c9b57610c9a610c80565b5b610ca56040610c34565b90506000610cb5848285016109a5565b6000830152506020610cc9848285016109a5565b60208301525092915050565b6000610ce8610ce384610c4f565b610c34565b90508083825260208201905060408402830185811115610d0b57610d0a610c7b565b5b835b81811015610d345780610d208882610c85565b845260208401935050604081019050610d0d565b5050509392505050565b600082601f830112610d5357610d52610bbe565b5b8151610d63848260208601610cd5565b91505092915050565b600060208284031215610d8257610d81610740565b5b600082015167ffffffffffffffff811115610da057610d9f610745565b5b610dac84828501610d3e565b91505092915050565b7f4e487b7100000000000000000000000000000000000000000000000000000000600052603260045260246000fd5b6000610def8261084f565b9150610dfa8361084f565b9250828202610e088161084f565b91508282048414831517610e1f57610e1e610b5b565b5b509291505056fea2646970667358221220278d00af20001a51a53a6ec722fb99a26f1795bbee10a1f95767acd362bd26dd64736f6c63430008180033",
  "linkReferences": {},
  "deployedLinkReferences": {}
}